:020000040040BA
:10000000F0244020810640007D0640007D0640002F
:100010007D0640007D0640007D0640000000000097
:100020000000000000000000000000007D0640000D
:100030007D064000000000007D0640007D06400077
:100040007D0640007D0640007D0640007D064000A4
:100050007D0640007D0640007D0640007D06400094
:100060007D06400000000000A5044000B9044000E7
:10007000CD0440007D0640007D0640007D06400026
:10008000E1044000F50440007D0640007D0640008C
:100090007D0640007D0640007D0640007D06400054
:1000A0007D0640007D0640007D0640007D06400044
:1000B0007D0640007D0640007D0640007D06400034
:1000C0007D0640007D0640007D0640007D06400024
:1000D000000000007D064000000000007D0640009A
:1000E0007D0640007D0640007D0640007D06400004
:1000F0007D0640007D0640007D0640007D064000F4
:100100007D0640007D0640007D0640007D064000E3
:100110007D0640000000000000000000000000001C
:100120007D0640007D0640007D0640007D064000C3
:100130007D064000000000007D0640007D06400076
:1001400010B5054C237833B9044B13B10448AFF311
:1001500000800123237010BD340440200000000003
:10016000F00B40000C4B43B10C480D4910B5AFF3F8
:1001700000800C48036823B910BD0A48036833B9EE
:100180007047094B002BF7D0BDE810401847064BCD
:10019000002BF5D0184700BF00000000F00B400016
:1001A00038044020F00B40000000000010B510485B
:1001B000104B98473E2100200F4B98470F4CA0470B
:1001C0000028FCD00E4B98470E4A0F4B9A620F4CFA
:1001D000A0470028FCD002200D4B984700200D4B73
:1001E00098470D4B98470248024B984710BD00BFF7
:1001F00000A3E11155084000A5054000F9054000A5
:1002000009064000013F182000060E401906400074
:10021000090540004105400049074000016370475F
:10022000416370474264B1F1C05F3AD013D8B1F175
:10023000006F25D0B1F1805F0AD1036F13430367CC
:10024000436F416F0B4023EA0203436742607047EC
:100250000029FBD17047B1F1205F21D009D8B1F15D
:10026000005FF3D1036F13430367436F1343436787
:10027000ECE7B1F1405F13D0B1F1605F10D0E5E77A
:1002800010B4016F046FD34321401C46194001672D
:10029000436F416F0B402340436742605DF8044B5E
:1002A0007047036F016F0B4023EA02030367436F3C
:1002B00013434367CAE7416412F0010F0DD1016691
:1002C00012F00A0F0BD0016212F0020F09D112F0E6
:1002D000080F08D0C0F8841005E04166F0E74162DD
:1002E000F2E7C0F8801041610160704710B4019CD2
:1002F00041644CB901664BB101654AB94163016182
:1003000001605DF8044B70474166F4E74165F4E72E
:100310000163F4E770B582B0054616461C46B1F19C
:10032000005F14D00AD9B1F1405F24D0B1F1605F11
:1003300021D0B1F1205F17D000201AE0B1F1805F29
:1003400005D0B1F1C05F02D0B1F1006FF4D13246F7
:100350002846114B984714F0010F02D12E66012058
:1003600007E06E66012004E01A4631460B4B9847C1
:10037000012002B070BD04F001030093C4F38003B8
:10038000B1F1605F14BF0022012231462846044CBF
:10039000A0470120EDE700BF25024000B702400062
:1003A000ED02400012F0100F12D0C0F8B01012F0A1
:1003B000200F07D0C0F8D41012F0400F05D0C0F8BD
:1003C000C0107047C0F8D010F6E7C0F8C4107047EE
:1003D000C0F8B410704701647047C06C7047806CFF
:1003E000704700002DE9F041044688460E4B9847BF
:1003F000054620460D4B9847054013D00C4C04F1A0
:10040000600603E0B4420DD010345DB12068404571
:10041000F8D161682942F5D0E3689847636825EA16
:100420000305EFE7BDE8F081DB034000DF03400098
:1004300050044020F8B5184C2668062E2AD84FF0F4
:10044000000C6446154F04E00134E4B2A446A64211
:1004500009D3A64625017D598D42F5D107EB041538
:100460006D689542F0D10D4D4FEA0E1E05EB0E045E
:1004700045F80E106260A3600699E160013666459A
:1004800005D011461A46064B98470020F8BD024990
:100490000E60F6E70120F8BDC00440205004402063
:1004A000A503400008B50A210148024B984708BD42
:1004B000000E0E40E503400008B50B210148024B39
:1004C000984708BD00100E40E503400008B50C2118
:1004D0000148024B984708BD00120E40E50340005A
:1004E00008B510210148024B984708BD00140E4082
:1004F000E503400008B511210148024B984708BDAB
:1005000000160E40E5034000032811D0042812D045
:1005100002280CBF4FF480710021084A136B23F4AA
:1005200040730B431363936E13F0080FFBD07047B7
:100530004FF44071F1E74FF40071EEE700060E4012
:10054000174A136B23F0700318431063936E13F074
:10055000080F0AD14FF4805311498A6E12F0080F28
:1005600003D1013BF9D1012070470D4A136B23F0F1
:10057000030343F002031363936E13F0080F0AD1D1
:100580004FF4805306498A6E12F0080F05D1013BE3
:10059000F9D101207047002070470020704700BF4C
:1005A00000060E40A0B90E48036A090289B20D4A3E
:1005B0001A400D4B1343194301620246936E13F028
:1005C000010FFBD0064A116A084B0B4313627047B8
:1005D00003490B6A064A1A40064B13430B627047E5
:1005E00000060E40FCFFC8FF010037000000370185
:1005F000FCFFC8FE02003701024B986E00F4803009
:10060000704700BF00060E404FF00052014B9A6247
:10061000704700BF00060E40024B986E00F00200CB
:10062000704700BF00060E403F281ED81F280CD878
:10063000114B9A6901238340934318D0012303FA95
:1006400000F00D4B18610020704720380A4BD3F89A
:1006500008210123834093430BD0012303FA00F0C8
:10066000054BC3F8000100207047012070470020AF
:1006700070470020704700BF00060E40FEE70000F4
:1006800000B583B0254B264A9A4210D0254B234A09
:100690009A420CD2013B9B1A23F003030433134408
:1006A0001F4951F8040B42F8040B9A42F9D11E4B32
:1006B0001E4A9A420AD2013B9B1A23F003030433D9
:1006C0001344002142F8041B9342FBD1184A194BF2
:1006D00023F07F039360EFF31083B3FA83F35B0996
:1006E000019372B6BFF35F8F0022134B1A7001990A
:1006F000124A136843F470031360BFF34F8FBFF3C4
:100700006F8F29B101220C4B1A70BFF35F8F62B655
:100710000B4B98470B4B9847FEE700BF000040206B
:10072000F00B400034044020EC044020340440200E
:1007300000ED00E0000040000000402088ED00E0F7
:10074000590A4000490940003B4B1B6B03F003036F
:10075000012B1DD083B1022B36D0374B1B6B03F01E
:100760007003702B5FD0344B1A6B3449C2F3021202
:100770000B68D3400B607047314B5B6913F0800FFF
:1007800014BF4FF400424FF4FA422C4B1A60E4E7D6
:10079000294B1B6A13F0807F03D02A4A274B1A602B
:1007A000DBE7294A254B1A60234B1B6A03F07003D1
:1007B000102B05D0202BD0D1224A204B1A60CCE739
:1007C000224A1E4B1A60C8E71B4B1B6A13F0807F3E
:1007D00016D01C4A194B1A60174B1B6B03F003030E
:1007E000022BBAD1144A916A926A1448C1F30A41A1
:1007F000036801FB0333D2B2B3FBF2F30360ACE74F
:10080000114A0E4B1A600C4B1B6A03F07003102B3D
:1008100005D0202BE0D10B4A084B1A60DCE70B4ACD
:10082000064B1A60D8E7054A13680949A1FB031370
:100830005B081360704700BF00060E4004004020B4
:1008400010180E40001BB70000093D0000127A008E
:10085000ABAAAAAA124B984211D9124B984213D9AB
:10086000114B984214D9114B984215D9104B98420C
:1008700094BF4FF004220F4A0F4B1A6070474FF09D
:1008800080620D4B1A6070470C4A0B4B1A60704720
:100890000B4A094B1A6070470A4A074B1A607047A7
:1008A000FF2C3101FF596202FF869303FFB3C4049A
:1008B000FFE0F50500050004000C0E4000010004F7
:1008C0000002000400030004024A137883F00103CD
:1008D00013707047C4044020024A137883F0010368
:1008E00013707047C504402008B54FF0804102489E
:1008F000024B984708BD00BF00120E401D02400089
:1009000008B54FF080410248024B984708BD00BF30
:1009100000120E402102400008B54FF0004102488D
:10092000024B984708BD00BF00120E401D02400058
:1009300008B54FF000410248024B984708BD00BF80
:1009400000120E402102400000B583B0334B98479F
:100950000A20334CA0470B20A0470C20A0471020B2
:10096000A0471120A0470C20A0470C20A0470C2036
:10097000A0470C20A0472B4C00234FF400524FF00F
:1009800020512046284DA84700234FF400324FF055
:1009900020512046A84700234FF080424FF040519D
:1009A0002046A84700234FF000424FF04051204618
:1009B000A8474FF4005120461C4EB0471C4B0093F3
:1009C00050234FF400520C2120461A4DA8474FF4F3
:1009D00000312046B047184B009330234FF40032CB
:1009E0000C212046A847154B4FF480521A60002274
:1009F00083F80C23124C134E134D03E0B04705E06F
:100A0000124B98472378002BF8D0A847104B1B783F
:100A1000002BF5D00F4B9847F4E700BFAD01400025
:100A20002906400000120E4015034000D703400085
:100A3000C908400035044000D908400000E100E04A
:100A4000C504402001094000E90840003109400088
:100A5000C40440201909400070B50F4E0F4D761B9D
:100A6000B61018BF002405D0013455F8043B984750
:100A7000A642F9D10A4E0B4D761B00F0A7F8B6102E
:100A800018BF002406D0013455F8043B9847A6420D
:100A9000F9D170BD70BD00BFD80B4000D80B40002D
:100AA000E00B4000D80B4000024B13B1024800F0AD
:100AB00005B8704700000000C90A40000023014645
:100AC0001A46184600F01EB838B50A4C0A4D641B89
:100AD000A4100AD004F18043013B05EB8305013CDF
:100AE00055F804399847002CF9D1BDE8384000F09A
:100AF00077B800BFF00B4000EC0B4000704700BF20
:100B0000704700BF2DE9F8432C4D064628689846EB
:100B10000F469146FFF7F2FF294B1C68D4F8483185
:100B2000002B3ED05A681F2A1CDC02F1010E76B160
:100B300003EB82010124C1F88890D3F88801944026
:100B40002043022EC3F88801C1F8088123D0023265
:100B5000C3F804E0286843F82270FFF7D1FF0020B3
:100B6000BDE8F883174B0BB34FF4C870AFF30080A8
:100B70000346D8B1D4F848210260002141600A46FA
:100B8000C4F848014FF0010EC0F88811C0F88C116C
:100B9000002EDCD0CCE7D3F88C110C43C3F88C4189
:100BA000D5E704F5A673C4F84831BBE72868FFF71A
:100BB000A7FF4FF0FF30BDE8F88300BF30044020AE
:100BC000C80B40000000000008004020F8B500BF3E
:100BD000F8BC08BC9E467047A90A40006501400069
:100BE000F8B500BFF8BC08BC9E4670474101400004
:100BF0000100000000093D0000000000F402402058
:100C00005C034020C40340200000000000000000FE
:100C100000000000000000000000000000000000D4
:100C200000000000000000000000000000000000C4
:100C300000000000000000000000000000000000B4
:100C400000000000000000000000000000000000A4
:100C50000000000000000000000000000000000094
:100C60000000000000000000000000000000000084
:100C70000000000000000000000000000000000074
:100C80000000000000000000000000000000000064
:100C90000000000000000000000000000000000054
:100CA00001000000000000000E33CDAB34126DE6F1
:100CB000ECDE05000B00000000000000000000005A
:100CC0000000000000000000000000000000000024
:100CD0000000000000000000000000000000000014
:100CE0000000000000000000000000000000000004
:100CF00000000000000000000000000000000000F4
:04102000C8044020A0
:040000050040068130
:00000001FF
